:020000040800F2
:10000000A0040020F5380008993700089B37000845
:1000100000000000000000000000000000000000E0
:100020000000000000000000000000009F370008F2
:100030000000000000000000A1370008A3370008FE
:10004000431E0008432C000897380008A338000816
:100050003D390008C5370008B53700083F390008AA
:10006000413900084339000845390008473900087C
:10007000493900084B3900084D3900084F3900084C
:10008000AD3700080000000000000000BD37000888
:1000900000000000513900085339000855390008A4
:1000A0000000000057390008593900085B39000882
:1000B0005D390008000000005F390008A53700081E
:1000C00030B587B000F016F900F03EFC007800284B
:1000D00064D000F041FC0400002500F035FC0078FD
:1000E00040070AD5200000F077F800F037FC200028
:1000F00000F01BFC042005004CE000F025FC00781B
:10010000800722D53F20205C552803D100F0A4FDB4
:1001100000F033FD200000F096F83F20205CA0287E
:1001200010D103A800F0E6FC03A800F0B3FAAC4835
:100130000068AC49884205D1AB48007801210143F1
:10014000A94801700220050024E000F0FDFB0078C2
:1001500000071FD5A078C5280FD1E01C00F0AEF82D
:10016000200000F0C7FC200000F094FA9E480078C0
:10017000012101439C4801700AE0A078C62807D1FC
:10018000E01C00F0AAF800F0E9FB200000F0CDFB35
:10019000082005002800C0B200F0D8FB00F0EAFCFF
:1001A000012803D100F078F900F0E7FC8E480078D0
:1001B000C00789D58C480078FE2101408A4801702B
:1001C000684600F097FC6846854909688847684694
:1001D000C01D00F046FE77E7F8B5060000F0A4FF6A
:1001E000B078C02805D1F21C6021072000F05DFF27
:1001F00028E0B078C12825D16846F1780170002444
:10020000E4B2072C1EDAE4B208256543AD1CEDB25A
:1002100070198778FFB2202F14D0EDB27019C21C6C
:10022000684600788021C9004143FFB20820784326
:1002300008188021C900411889B2052000F035FF57
:10024000641CDDE7F1BDF8B50500A878C02807D12A
:1002500000F06AFFEA1C6021072000F0EEFE2CE0AF
:10026000A878C12829D16846A97801700224684677
:100270000078002821D0E4B228194778E4B2281980
:10028000867800F051FFE4B22819C21CFFB280202A
:10029000C0007843F6B20821714340188021C9009C
:1002A000411889B2052000F0C8FE08346846E4B25F
:1002B000295D0170E4B2412CD9DBF1BD10B5040019
:1002C00000F0CAFC200000F00DFC00F02DFFE21D44
:1002D0004021012000F0B1FE10BD10B50400200047
:1002E00000F008FC00F020FFE21D4021012000F09A
:1002F000DCFE10BD00B585B011209C4908609C480B
:100300000068A02189030143994801609948006869
:1003100080214904014397480160964800688001A4
:10032000FBD59348006803218843914908609048B1
:100330000068022101438E4801608D4800680C214D
:1003400001400829F9D18C4800688C21C903014378
:10035000894801609020C00500688021490301435D
:100360009020C005016000F045FF00F02FFE01283D
:1003700002D0002000F06FFA00F051FB012802D0FB
:10038000012000F068FA6846BE490A6802606846C3
:1003900000F02FFC00F05BFC01F0B0F83C210120E4
:1003A00000F06CFDB8480E49086001A800F0A2FBFF
:1003B00001A800F06FF901A809490968884701A858
:1003C000C01D00F04EFD00F073FAB04801F03AF99C
:1003D00000F099FD012000F0C8FD05B000BD00004F
:1003E00018070020B70700083E07002070B582B04C
:1003F00006003000C0B200F021F80500EDB2212D5A
:1004000018DA2800C0B201F040F8002420002900CA
:10041000C0B2C9B2884210D26A462100C9B23000C7
:10042000C0B200F01BF869462000C0B201F031F8FC
:10043000641CEBE7002001F028F873BD10B582B012
:10044000040000F071FE6A46E4B22100603189B216
:10045000012000F02AFE6846007816BD7CB5060033
:100460000D0014006A46F6B28020C0007043EDB261
:100470000821694340188021C900411889B205202C
:1004800000F013FE6846007820706846407860707F
:1004900068468078A07073BD1FB5002400A8801C3A
:1004A00000F08CFBC24800680078FF281CD0C048D0
:1004B00000684078002807D0BD4800684078401E9A
:1004C000BB49096848700FE03B20B949096848708A
:1004D000B74800680078002806D0B5480068007862
:1004E000401EB3490968087068468078C00705D582
:1004F00000F0B2FB00F0A5FF0120040001A800F00D
:10050000F9FA01A88078002820D101A840780028B5
:100510001CD101A8C078401EC0B2FFF767FF01A838
:10052000417801A8807800F0F3FE012004006846BD
:1005300000F0C7FF012809D168460078002805D1DE
:1005400068464078002801D100F07BFFE4B2012C1E
:1005500002D101A800F012F801A84D4909688847A6
:1005600001A8C01D00F07DFC1FBD0000002002405E
:10057000041002400010024014100240FEB50500B5
:100580006878A9783C22514347186846401C00F01F
:1005900098FF012815D1002069460870802069461F
:1005A000C87068464078694689783C224A4380187A
:1005B000C01B69468880684600F013FB00F042FBD0
:1005C0004FE00724EE78F6B2072E0DDA3000C0B205
:1005D000FFF734FFC0B2002804D0C0B2212801DAEE
:1005E000340001E0761CEEE7E4B2072C13D10026BC
:1005F000E878401EF6B2B0420DDB3000C0B2FFF723
:100600001DFFC0B2002804D0C0B2212801DA340096
:1006100001E0761CECE7E4B2072C1FD002AA00210F
:100620002000C0B2FFF71AFFE878401EE4B2A042F3
:1006300000DBE41DE4B2E878201A9449401AB421A2
:10064000C900484302A9497840186946097A3C2202
:100650004A438018C01B6946888002E08C4869467E
:100660008880684680883C2101F05EF8504909681E
:100670000870684680883C2101F056F84C480068B4
:100680004170F7BD34390008B50700084D07000870
:100690001807002010B50400E078401EC0B2FFF734
:1006A000A5FE6178A07800F033FEE078401EC0B26D
:1006B00000F004F82000FFF761FF10BDF8B5070057
:1006C00000F08AFE012840D0072500247E1E76B265
:1006D000002E0FD43000C0B2FFF7B0FE0400E4B229
:1006E000002C05D0E4B2212C02DAF6B2350001E08C
:1006F000761EECE7EDB2072D15D1062676B2FFB2D5
:10070000781E86420FDB3000C0B2FFF797FE040070
:10071000E4B2002C05D0E4B2212C02DAF6B23500A6
:1007200001E0761EEAE7EDB2072D0BD06A46611EA6
:10073000C9B22800C0B2FFF791FE6846807800F089
:1007400033FE02E0002000F02FFEF1BD80B500F086
:1007500009FC002803D0022821D013D327E000F0A1
:10076000D2FB012000F001FC3C21012000F0BCFB89
:1007700048484949086049480078012101434748F1
:10078000017014E0022000F0F0FB45484249086087
:1007900042480078012101434048017007E000F021
:1007A000BFFB002000F0E1FB3A483B49086001BD77
:1007B00008000020704738B504000125394800685A
:1007C0000078FF2837D0374800680078642100F0AF
:1007D000ABFFE071334800680078642100F0A4FFAB
:1007E00008000A2100F0A0FF20722E48006800785F
:1007F000642100F099FF08000A2100F095FF617262
:10080000E079002804D0022005000A20A0721CE034
:10081000207AE071607A20722248006840780A21CC
:1008200000F082FF60721F48006840780A2100F0E3
:100830007BFFA17209E00B20E0710B2020720B20DE
:1008400060720B20A072042005000F212800C0B2A6
:1008500000F04AFB31BD38B5040013480088134945
:100860000140114801800125E4B2002C02D0012C86
:1008700003D005E00420050002E002200500FFE7A8
:100880002800C0B200F0E7FCFEE70000FFFF000018
:10089000C43B0000B5070008180700203E070020F1
:1008A000B70700080800002014000048FFFB000004
:1008B00080B52D480068012101432B4801602B4879
:1008C00000681021014329480160294B294A2A491F
:1008D0002A4800F083FF01BD00B50021C9B24029BC
:1008E00006DAC9B2425C264BC9B25A54491CF5E734
:1008F00023494978002909D002290ED014D2214970
:10090000097804220A431F490A700DE01D4909783D
:1009100002220A431B490A7006E01A490978082294
:100920000A4318490A70FFE700BD10B504001648D5
:100930000078002807D040222100104801F05DF91E
:1009400000201149087010BD0E4870470D49097804
:1009500081430C4A117070470948704700B50A4836
:1009600000780128FBD100BD1810024000000140B2
:10097000880000202C00002050000020A00400204F
:10098000480600203F0700209C0000200121C206ED
:10099000D20E91407B4A11607047F0B540B20028FA
:1009A00021D5794C40B20207120F083A950804226B
:1009B0005543754A40B203071B0F083B9B080426AA
:1009C0007343D258FF238607B60F08277E43B340F0
:1009D0009A438B01DBB28607B60F08277E43B340EC
:1009E000134363511AE0694A40B283080424634305
:1009F000D258FF238407A40F08256C43A3409A43D1
:100A00008B01DBB28407A40F08256C43A34013437A
:100A10005E4A40B2840804256C431351F0BD10B502
:100A200082B05B480088032101435948018059483E
:100A3000006805210143574801600024564800889A
:100A400003210143544801805448008880B2C00704
:100A50000BD551480088524901404F4801804E480B
:100A60000088012101434C4801804B4800884D49D2
:100A7000014049480180641C4848008880B2C00792
:100A800002D4E4B21E2CD9DB4448008880B2C007EF
:100A900001D4002025E03F4800680F2188433D49EC
:100AA0000860682001F0EEF868463F490A88028035
:100AB0006A460E21022001F01CF93C480068012121
:100AC00001433A4801600520FFF760FF002105203F
:100AD000FFF763FF36480068012101433448016095
:100AE000012016BD10B5040022000021072001F0EE
:100AF00000F910BD10B5040022000021072001F00C
:100B00002BF9A0788006800EA070A078C0B20009F2
:100B1000E071A0780007000F20726078C0B2000971
:100B2000607260780007000FA072207800F0BFF8B4
:100B30002070607800F0BBF86070A07800F0B7F823
:100B4000A070207900F0B3F820716079C006C00E63
:100B500000F0ADF86071A07900F0A9F8A07110BDA7
:100B60001448006801210143124801600120124924
:100B70000870704710480078704700200E490870D0
:100B80007047000000E100E01CED00E000E400E040
:100B900004140048001400481414004810140048BD
:100BA000FEFF0000FDFF0000821C00080C04014055
:100BB00000040140140401404007002010B582B039
:100BC000040022000F21012001F0C6F82078FC214A
:100BD0000140684601706A460F21012001F089F842
:100BE00013BD10B5040022000421072000F009F80D
:100BF00010BD10B50400220003210B2000F001F805
:100C000010BDF1B50C001700002528002100C0B26E
:100C1000C9B288420DD2EDB27E5DF6B2300606D47E
:100C20003000C0B200F04EF80600EDB27E556D1CEB
:100C3000EBE73A006846017889B22000C0B201F0C3
:100C400058F8F1BD80B5012000F00BF801BD80B56A
:100C5000022000F006F801BD80B5012000F014F874
:100C600001BD10B582B004006A460E21012001F0DA
:100C700073F8684600782043694608706A460E217A
:100C8000012001F036F813BD10B582B004006A46A9
:100C90000E21012001F060F868460078A043694603
:100CA00008706A460E21012001F023F813BD0100EF
:100CB0000800C0B200090A2250430A07120F801828
:100CC000C0B2704770B50400E4B220000A2100F001
:100CD0002BFD050028010600E4B220000A2100F0E7
:100CE00023FD08003043C0B270BD704770477047A5
:100CF000704770470121C206D20E91409C4A116094
:100D00007047F0B540B2002821D59A4C40B2020796
:100D1000120F083A950804225543964A40B2030739
:100D20001B0F083B9B0804267343D258FF238607FA
:100D3000B60F08277E43B3409A438B01DBB2860788
:100D4000B60F08277E43B340134363511AE08A4A23
:100D500040B2830804246343D258FF238407A40FBE
:100D600008256C43A3409A438B01DBB28407A40F90
:100D700008256C43A34013437F4A40B284080425EE
:100D80006C431351F0BD00B57C4800887C4901409C
:100D90007A4801807B4800887B490140794801807E
:100DA0007A4800887A4901407848018079487A4930
:100DB0000978405C73490988784AC0B202234343EA
:100DC000D25A0A436F490A8073490978744A1268F3
:100DD000127891422DD1724909688978012905D18B
:100DE0006849098810220A4366490A806C490968E3
:100DF000C978491C6A4A1268D170694909684978FA
:100E0000674A1268D2780B00DBB29A4211D30022F3
:100E1000634B1B68DA70624A12689278002A04D128
:100E200001225F4B1B689A7003E000225C4B1B6839
:100E30009A705C49584A1278895C080053490988BD
:100E4000C0B20143514A118053490978491C524AA2
:100E5000117051490978042902D100214E4A1170BC
:100E600000BD00B50021C9B2042906DAC9B2425C4E
:100E7000484BC9B25A54491CF5E700BD38B50400C7
:100E80000D009020C0050068474901439020C0052F
:100E900001604648006846490143444801604548AE
:100EA00000680221014343480160FF20E0304249CD
:100EB0000880FF20903041490860012040490880A7
:100EC0003C480068022188433A4908601020FFF737
:100ED00011FF01211020FFF714FF2900C9B22000E3
:100EE000C0B200F001F831BD2D4A126810702C4AD2
:100EF0001268517000222A4B1B689A700022284BFE
:100F00001B68DA7070472B480068022101432948AA
:100F100001602C480088012101432A480180704764
:100F200000202949087027480088154901402548B4
:100F300001801248008812490140104801801D4874
:100F40000068022188431B4908600E4800880E494A
:100F500001400C4801800D4800880D4901400B48B4
:100F6000018070471848007870471749087070472B
:100F700000E100E01CED00E000E400E010040040AF
:100F8000FEFF00001400004805FC000014040048A7
:100F90003CFF0000080700203D070020B83800088B
:100FA00000000020303900084455050000040048C6
:100FB000055000001C100240280400402C04004092
:100FC0000C040040000400403C07002080B5902045
:100FD000C00500688021C90501439020C00501605B
:100FE0007C4800888021090201437A4801807A48C0
:100FF0000068A8210901014377480160774800682B
:10100000A821C90001437548016075480068802126
:101010004901014372480160C52080007149088080
:10102000B8204001704908806E4800884021014383
:101030006C48018000F085F802BD70B504000D0019
:101040001600644800884004400C6249088006206D
:1010500000F0AFF85F4800888021090201435D4835
:1010600001805C4800884004400C5A4908800220F6
:1010700000F09FF8280080B2000AC0B200F099F892
:101080002800C0B200F095F8E4B2002C05D030780A
:1010900000F08FF8761C641EF6E74E480088802129
:1010A000090201434B48018070BD70B504000D007A
:1010B0001600484800884004400C46490880032038
:1010C00000F077F8280080B2000AC0B200F071F892
:1010D0002800C0B200F06DF8002000F06AF830700F
:1010E000761C641EE4B2002CF6D13A4800888021B8
:1010F000090201433748018070BD10B5040035482E
:1011000000884004400C33490880052000F051F865
:10111000002000F04EF820702E480088802109023F
:1011200001432C48018010BD80B50120694608703C
:1011300068460078C00703D56846FFF7DEFFF7E78B
:1011400001BD80B500A8401CFFF7D7FF21480088EB
:101150004004400C1F490880062000F02AF81D4872
:1011600000888021090201431A4801806846FFF780
:10117000C4FF6846007869464978884213D0012048
:1011800069460870134800884004400C11490880E3
:10119000042000F00EF80F48008880210902014366
:1011A0000C48018002E0002069460870684600781B
:1011B00002BD00B501000D4800888007FBD50C4832
:1011C00001700A480088C007FBD509480078C0B202
:1011D00000BD000014000048000400480804004856
:1011E0001810024000300140043001400830014036
:1011F0000C300140364800688021490201433448E0
:10120000016034480068802189020143314801604F
:101210003148324908806820314908808020000226
:10122000304908800120304908802A4800682F4949
:1012300001402848016070472D48008880214900FE
:1012400001432B4801807047294800882949014003
:1012500027480180704730B50400E4B2002C36D036
:101260002548E4B2210000F062FA05002048008819
:10127000204901401E480180154800681F4901406F
:101280001348016012480068802189020143104818
:1012900001601B48006802210143194801600D48A4
:1012A00000688021890201430A480160ADB2681ECE
:1012B00014490860ADB22800022100F035FA124945
:1012C000086012480088012101431048018030BDA8
:1012D00000040048181002409F0F000028440140FD
:1012E000184401404444014020440140FFFFFDFFF9
:1012F00014040048FFFE0000E02E0000FFFFFCFF8A
:10130000240400482C44014034440140004401407E
:1013100030B52022824B1B685A70814A12681278BD
:10132000002A40D0C0B2002811D1C9B200290ED184
:101330007C4A12681278002A09D17A4A12685278D7
:10134000002A04D10022764B1B685A702BE0002241
:101350001300734C24682478DBB2A34223D2030029
:10136000704CD2B20425554364592478DBB2A342B1
:1013700013D36C4BD2B2042454431B591B78040082
:10138000E4B2A3420DD10B00664CD2B20425554302
:1013900064596478DBB2A34203D2614B1B685A7074
:1013A00001E0521CD4E730BD10B50400E4B2002CBB
:1013B00008D15D4800885D4901405B480180FFF726
:1013C00043FF08E0584800888021C900014356487F
:1013D0000180FFF731FF10BD80B5514800680078EB
:1013E000002801D100202BE04D48006840782028DB
:1013F00012D04B480068407800280DD04948484931
:1014000009684978042251434018001F0068807819
:10141000FFF7CAFF012013E0414800684078202808
:101420000DD140483E4909680978042251434018CB
:10143000001F00688078FFF7B7FF012000E0002060
:1014400002BD80B536480068407820281CDA35484F
:101450003349096849780422514340588078FFF79E
:10146000A3FF2F4800684078401C2D490968487048
:101470002B48006840782A4909680978884203D1D6
:10148000202027490968487001BD2549096808706E
:10149000704710B40A78234BC0B2042444431B594C
:1014A0001A704A781F4BC0B2042444431B595A7027
:1014B0008A781C4BC0B2042444431B599A7010BC58
:1014C000704700B50100164800684078202801D117
:1014D000002012E01348124A1268527804235A433B
:1014E0008058407808700F480D4A126852780423DB
:1014F0005A43805800784870012000BD00B5002094
:10150000C0B220280BDA0A49C0B20322424389182C
:10151000044AC0B204234343D150401CF0E700BD4D
:10152000040000206805002014000048FFFB0000B4
:10153000E80500200121C206D20E91405C4A1160EC
:101540007047F0B540B2002821D55A4C40B202078E
:10155000120F083A950804225543564A40B2030731
:101560001B0F083B9B0804267343D258FF238607B2
:10157000B60F08277E43B3409A438B01DBB2860740
:10158000B60F08277E43B340134363511AE04A4A1B
:1015900040B2830804246343D258FF238407A40F76
:1015A00008256C43A3409A438B01DBB28407A40F48
:1015B00008256C43A34013433F4A40B284080425E6
:1015C0006C431351F0BD80B53C4800883C49014054
:1015D0003A4801803B48008880B2400702D43A482C
:1015E0000068804739480088354901403748018004
:1015F00000203749086037480068374901403548BE
:10160000016036480068042101433448016001BD8F
:101610003248006804218843304908603048006837
:10162000042101432E4801602A48006880214900B6
:1016300001432848016025480088012101432348CF
:101640000180704710B504002248006880214900DD
:101650000143204801602348234908802348244946
:1016600008600120234908801A4800681A4901408F
:10167000184801601320FFF75DFF02211320FFF7D8
:1016800060FF114804601C480068042101431A48A7
:1016900001600620FFF74EFF02210620FFF751FFF1
:1016A0000E480068042101430C48016010BD000091
:1016B00000E100E01CED00E000E400E0102000404C
:1016C000FEFF00001000004814070020002000402A
:1016D000242000401C100240FFFEFFFF00040140D8
:1016E00014040140CF070000282000403F060000FE
:1016F0002C2000400C2000400C040140F44600283F
:1017000004D4494200F013F84042604740420029A7
:1017100005D45FD000F00BF840424942604749428F
:1017200000F005F84942604703460B43E6D4002227
:10173000030A8B420BD203098B4219D243088B4216
:101740002ED2411A00D20146524110467047FF2264
:1017500009023FD012068B4205D3121209028B42B6
:1017600001D31212090203098B4219D300E0090ABE
:10177000C3098B4201D3CB01C01A524183098B426A
:1017800001D38B01C01A524143098B4201D34B0153
:10179000C01A524103098B4201D30B01C01A5241B6
:1017A000C3088B4201D3CB00C01A524183088B423D
:1017B00001D38B00C01A524143088B4201D34B0026
:1017C000C01A5241884200D3401A5241CFD201463A
:1017D0001046704708B500F033FB08BDF8B50400AB
:1017E0000F0015001E00200000F075FB200000F027
:1017F00016F8B8202550BC202650C020275000F0F5
:10180000E2FB200000F036FCBC2020580068804736
:10181000200000F097FB200000F09CFEF1BD0100CD
:10182000002070471CB504006946200001F054F9FF
:1018300068460078C006C00EC0B2002803D0022857
:101840000BD005D30EE06946200000F099FE10E0B1
:101850006946200000F0D2FE0BE06946200000F04F
:10186000F5FE06E06846017880200140200000F087
:10187000DAFD002016BD70B504000E00F6B2002E91
:101880002BD12000683005006078032834D1E86847
:10189000E969884210D2E869E968401AE861E869B4
:1018A000E968884201D2EA6900E0EA6892B22969EF
:1018B000200001F09BF91FE0B820205800690028A3
:1018C00007D0A078032804D12000B8216158096905
:1018D0008847200001F099F90EE0B820205880696F
:1018E000002809D0A078032806D13100C9B2200011
:1018F000B822A25892699047002070BD70B50400CC
:101900000E00F6B2002E4CD1200018300500607891
:10191000022835D1E868E96988420AD2E869E968AD
:10192000401AE861EA6992B22969200001F038F9A9
:1019300046E0286AE968FFF7FAFE00290FD1286A15
:10194000E96888420BD3286A696A884207D2002274
:101950000021200001F024F90020686230E0B82066
:101960002058C068002807D0A078032804D12000A0
:10197000B8216158C9688847200001F054F91FE078
:10198000607804281CD10F480068002818D00D4842
:101990000168C9B2200000F0BBFD002009490860C1
:1019A0000EE0B82020584069002809D0A07803280C
:1019B00006D13100C9B22000B822A258526990471E
:1019C000002070BD3807002010B50400402300221D
:1019D0000021200000F070FB8023002280212000E5
:1019E00000F06AFB002340220021200000F08BFB66
:1019F000002340228021200000F085FB0120A07000
:101A0000E068C0B2BC21615849688847002010BD19
:101A100010B50400BC20205800698047E078A07011
:101A2000002010BD10B50400A078E0700420A07064
:101A3000BC202058C0688047002010BD10B50400AD
:101A4000B8202058C069002804D02000B82161586F
:101A5000C9698847002010BD38B505000C00210079
:101A6000C9B22800B822AA5812689047BC2028584A
:101A700080688047002032BD38B505000C00210089
:101A8000C9B22800B822AA5852689047002032BD37
:101A900038B504000D00A8235B000022812120003E
:101AA00000F00AFBB0235B0000220121200000F0BF
:101AB00003FB032340228121200000F024FB0323A9
:101AC00040220121200000F01EFB4023614A012139
:101AD000200000F017FC002032BD38B504000D00D6
:101AE0008121200000F0B9FB0121200000F0B5FBAE
:101AF000002032BDF8B506000D00002069460870D0
:101B000000240027287860210140C9B200293CD078
:101B1000202970D16878022819D003280AD0092812
:101B20001BD00A280CD00B2828D16888C0B24A499B
:101B3000086029E001224849300001F01CF823E048
:101B4000688880B2000AC0B2444908601CE00122E3
:101B50004249300001F00FF816E0012040490870BA
:101B60006888404908706846E988017068460278CC
:101B700092B23849300001F022F805E02900300027
:101B800000F0C2FF022037E035E06878062804D074
:101B90000A2826D00B282AD02DE0688880B2000AB7
:101BA00080B2222808D1E888312801DB302400E007
:101BB000EC882D4807000DE0688880B2000A80B2EA
:101BC000212807D129480700E8880A2801DB0924D1
:101BD00000E0EC88220092B23900300000F0CBFF28
:101BE00009E001222249300000F0C5FF03E06888C7
:101BF000C0B21F4908600020F2BD70B505000E009C
:101C00001400A878032806D1A4B223003200812151
:101C1000280000F0B1FB002070BD020029200880E0
:101C20001448704700B50200C9B2012902D1012051
:101C3000114B1870002000BD38B504000D00054898
:101C4000FEF74AFE4023034A0121200000F05AFB20
:101C5000002032BD88060020280700202C07002025
:101C60004207002041070020CC3700080E3800084A
:101C700024070020FC3700089C0000200100002001
:101C8000704704005D49096811220A435B490A60F4
:101C90005B4909680A220A4359490A605949096897
:101CA00010220A4357490A60574909688022920363
:101CB0000A4355490A605549554A11600121554A60
:101CC000116055490968C0B242000A4352490A608E
:101CD000524909688022D2020A4350490A60012110
:101CE0004F4A11604D4909684E4A0A404B490A6003
:101CF000704710B5484B1B684B4C1C40464B1C6052
:101D0000454B1B68C0B20400641C24041C43424BB6
:101D10001C6089B2454B19603F4B1B688024A401AD
:101D20001C433D4B1C60424B1B68DB07FBD5C0B21C
:101D3000002809D013783D4C23603D4B1B68DB071E
:101D4000FBD5521C401EF2E7334B1B688024E40194
:101D50001C43314B1C6010BD10B52F4B1B68324C1F
:101D60001C402D4B1C602C4B1B68802464021C43C0
:101D7000294B1C6089B22D4B1960274B1B688024AE
:101D8000A4011C43244B1C60294B1B68DB07FBD5BB
:101D9000214B1B688024E4001C431F4B1C601E4B1E
:101DA0001B68244C1C401C4B1C601B4B1B68C0B2A6
:101DB00004041C43184B1C60174B1B688024A401AF
:101DC0001C43154B1C601A4B1B685B07FBD51A4B59
:101DD0001B681370521C401EC0B20028F3D10E4B7A
:101DE0001B688024E4011C430B4B1C60134B1B68D5
:101DF00020241C43114B1C6010BD0000201400481F
:101E000000140048301002401C10024009033350F7
:101E10001054004000540040045400401810024088
:101E20002C480140FFFFFBFFFFFB00FF2854004050
:101E300018540040FFFF00FF245400401C54004091
:101E40007047FEE70121C206D20E9140364A11606A
:101E50007047F0B540B2002821D5344C40B202079B
:101E6000120F083A950804225543304A40B203073E
:101E70001B0F083B9B0804267343D258FF23860799
:101E8000B60F08277E43B3409A438B01DBB2860727
:101E9000B60F08277E43B340134363511AE0244A28
:101EA00040B2830804246343D258FF238407A40F5D
:101EB00008256C43A3409A438B01DBB28407A40F2F
:101EC00008256C43A3401343194A40B284080425F3
:101ED0006C431351F0BD17490968802212040A436C
:101EE00014490A6013490968802212050A431149FE
:101EF0000A6011490968114A0A400F490A600E49EF
:101F00000968802292050A430B490A600C49096856
:101F100040220A430A490A600949096820220A4303
:101F200007490A607047000000E100E01CED00E096
:101F300000E400E01C100240046C0040FFFFFFCFF3
:101F4000006C004010B5040001211F20FFF781FF45
:101F50001F20FFF777FF10BD0200122008802648DF
:101F600070470200042008802448704738B50400F8
:101F70000D002A002249234800F0CEFD204832BD42
:101F800038B504000D002A001D491F4800F0C4FDAB
:101F90001B4832BD02001A2008801C48704738B523
:101FA00004000D002A001649194800F0B5FD144838
:101FB00032BD38B504000D002A001149154800F063
:101FC000ABFD0F4832BD70B51348006804001348DC
:101FD000006806001248006805006419002C09D04A
:101FE00008221049200000F021F804220E49300098
:101FF00000F01CF870BD0000D03800083839000827
:10200000C806002028390008043900086C000020A8
:1020100010390008E4380008ACF7FF1FB0F7FF1FC5
:10202000B4F7FF1F6E0000207E00002030B50023B3
:10203000002423001C001500E4B2EDB2AC4218D21B
:10204000040F0A2C06D2040F3034DBB202255D43A4
:102050004C5505E0040F3734DBB202255D434C5587
:1020600000010024DBB202255D434D196C705B1C3E
:10207000E0E730BD10B504000120A0700020207101
:102080000020A0600120E060012000F0DBFD0020C6
:1020900000F0D8FD002000F0D9FD002000F0DAFDAE
:1020A000BF200002034908600248006880B200F0C7
:1020B000C9FD10BD2007002070B5040089B20806D4
:1020C00008D589B24806400E2826704320181830DB
:1020D000050007E089B24806400E28267043201804
:1020E0006830050092B2002A04D10020A8721800BE
:1020F000A88006E00120A8721800E8801800000CF3
:102100002881002070BDF8B506000D001700ADB2A3
:1021100028060AD5ADB26806400E2821484330187B
:10212000183004000120607009E0ADB26806400E6E
:102130002821484330186830040000206070BFB286
:10214000E76068460078E07028004006400E207086
:102150002078002805D1002060620020E061002086
:10216000206200202061002060610020A06100202A
:10217000A070E078002805D0022809D013D30328E6
:102180000BD015E080218900207800F06FFD0FE072
:102190000021207800F06AFD0AE0C021C900207803
:1021A00000F064FD04E08021C900207800F05EFDAD
:1021B000A07A002820D1607800280BD0A188207850
:1021C00000F010FE207800F0F6FD2021207800F0CD
:1021D0005EFD40E0A188207800F018FEE16889B239
:1021E000207800F02DFE207800F0CEFDC02189017E
:1021F000207800F068FD2EE0207800F082FD228932
:10220000E188207800F05CFE6078002812D1207808
:1022100000F0BAFD207800F0CEFD207800F0A4FD9B
:10222000C0218901207800F04EFD0021207800F0C7
:102230002EFD10E0207800F0A7FD207800F0BBFD17
:10224000207800F07DFD0021207800F020FD0021A5
:10225000207800F038FD0020F2BD70B506000C00BB
:10226000E4B2200608D5E4B26006400E28214843B7
:1022700030181830050007E0E4B26006400E28214F
:102280004843301868300500A87A002812D16878D1
:10229000002807D0287800F08EFD0021287800F073
:1022A000F6FC2DE0287800F06FFD0021287800F082
:1022B0000AFD25E06878002811D1287800F064FD37
:1022C000287800F078FD287800F04EFD002128786D
:1022D00000F0F9FC0021287800F0D9FC10E0287803
:1022E00000F052FD287800F066FD287800F028FD07
:1022F0000021287800F0CBFC0021287800F0E3FCD6
:10230000002070BDF8B582B007000E001500002057
:102310000090F6B27006400E282148433818683005
:10232000040025616846008960610020A061E068C2
:102330006169884206D2E068009060690099401A9D
:10234000606103E06069009000206061A07A00286D
:1023500005D1009989B2207800F072FD05E0009A5D
:1023600092B26178207800F0D3FDC02189012078F5
:1023700000F0A9FC0020FEBDF9B581B00E001700E9
:10238000002000900198F6B27106490E28225143B0
:102390004018183004007006400E20702761029823
:1023A00060610020A061E0686169884206D2E0684F
:1023B000009060690099401A606103E060690090D4
:1023C00000206061A07A00280BD1009A92B2A18807
:1023D000206900F050FE009989B2207800F025FDB8
:1023E0001BE00025009A92B26178207800F090FD01
:1023F000207800F034FC400602D52089050001E079
:10240000E0880500009A92B2290089B2206900F0A4
:1024100032FE6178207800F009FE3021207800F04B
:1024200036FC0020FEBD70B506000C00E4B22006AC
:1024300008D5E4B26006400E282148433018183011
:10244000050005E0E4B2282060433018683005003C
:10245000287800281BD144492A7804235A438958F4
:1024600089B2424A0A4010000100802040014840E1
:1024700001001020484080B23D4901433A482A7883
:1024800004235A4381500120A870002011E068788D
:10249000002806D00120A8701021287800F0F7FB52
:1024A00006E00120A87080214901287800F00BFC8B
:1024B000002070BD70B506000C00E4B2200608D5FF
:1024C000E4B26006400E2821484330181830050059
:1024D00005E0E4B2282060433018683005006878D1
:1024E000002809D0287800F066FC3021287800F018
:1024F000CEFB0020A87009E0287800F045FCC02140
:102500008901287800F0DFFB0020A870002070BD52
:1025100070B50022017100231A00022A14D2124B56
:102520001400E4B204256C431B59124C1C401300E8
:10253000DBB223430E4C1C430B4B1500EDB20426BB
:1025400075435C51521CE8E7C9B280230B430A4C27
:10255000236070BD09490968802212020A430749B5
:102560000A60012181707047005C0040BFBF00001D
:10257000808000008F8F00004C5C0040585C004061
:1025800070B504000E0000257078002820D00128C6
:1025900028D0032821D005280BD0062804D00828ED
:1025A00011D009280AD022E03100200000F0FDF807
:1025B00021E03100200000F098F91CE031002000FB
:1025C00000F0BDF917E03100200000F017FA12E02A
:1025D0003100200000F036FA0DE03100200000F05C
:1025E0004EFA08E03100200000F05BFA03E0310011
:1025F000200000F089FA2800C0B270BD70B5040058
:102600000E000025A078032819D1B088C0B2022896
:1026100010DA31002000B822A258926890470500D5
:10262000F08800280AD1EDB2002D07D1200000F07B
:10263000ECFA03E03100200000F066FA03E031001C
:10264000200000F061FA2800C0B270BDF8B50400A7
:102650000E00002000900027B08805007078002848
:1026600062D0012831D0032800D09BE0A078022856
:1026700002D003280CD023E0EDB2002D07D0EDB23C
:10268000802D04D02900C9B22000FFF7CCFE1BE04A
:10269000708800280AD1EDB2002D07D0EDB2802D50
:1026A00004D02900C9B22000FFF7BDFE3100200090
:1026B000B822A25892689047200000F0A6FA03E0E2
:1026C0003100200000F020FA6CE0A078022802D04F
:1026D00003280CD023E0EDB2002D07D0EDB2802D01
:1026E00004D02900C9B22000FFF79DFE1BE07088CE
:1026F00000280AD1EDB2002D07D0EDB2802D04D014
:102700002900C9B22000FFF7D5FE31002000B82211
:10271000A25892689047200000F077FA03E0310059
:10272000200000F0F1F93DE0A078022802D0032853
:102730000CD032E0EDB2002D07D0EDB2802D04D0E8
:102740002900C9B22000FFF76EFE2AE0EDB228068C
:102750000ED5EDB26806400E282148432018807E31
:10276000002802D00120009011E0002000900EE02F
:1027700028060CD4EDB22820684320186A21405C5A
:10278000002802D00120009001E0002000900222E9
:102790006946200000F0EFF903E03100200000F06E
:1027A000B3F9FFE73800C0B2F2BD70B582B00400E3
:1027B0000D00688880B2000AC0B2012808D0022843
:1027C00015D003281ED0062865D0072868D06CE0F5
:1027D0006946E068C0B2C022A2581268904706005D
:1027E000E888402802D108206946088062E06946EE
:1027F000E068C0B2B822A258126A90470600C4200E
:10280000265057E06888C0B2002808D0022818D0A7
:102810000ED3042827D01DD305282DD035E06946D6
:10282000E068C0B2C022A25852689047060031E06A
:102830006946E068C0B2C022A2589268904706007C
:1028400028E06946E068C0B2C022A258D26890472A
:1028500006001FE06946E068C0B2C022A2581269B3
:102860009047060016E06946E068C0B2C022A25850
:102870005269904706000DE06946E068C0B2C02288
:10288000A25892699047060004E02900200000F059
:102890003BF929E00EE02900200000F035F923E0A3
:1028A0002900200000F030F91EE02900200000F08F
:1028B0002BF919E068460088002815D0E888002820
:1028C00012D068460088E988884204D268460088A9
:1028D0006946088002E0E888694608806846028800
:1028E0003100200000F047F973BD70B504000E0000
:1028F000B08800281ED1F08800281BD1B07840068F
:10290000400E0500A078032804D13100200000F01B
:10291000FBF813E02571EDB236480560200000F0A9
:1029200074F9EDB2002D02D00220A07006E0012063
:10293000A07003E03100200000F0E6F870BD38B56B
:1029400004000D0068882C4908702B480078022884
:1029500004DB2900200000F0D7F84AE0A078022824
:1029600002D0032816D040E02348007800280DD07C
:102970002148007820700320A0701F4801782000B3
:10298000FFF76AF8200000F040F902E0200000F0B4
:102990003CF92EE01848007800280DD10220A070E4
:1029A000154800782070144801782000FFF764F87B
:1029B000200000F02AF917E00F48007821788842BB
:1029C0000FD021782000FFF757F80B4800782070CF
:1029D000094801782000FFF73FF8200000F015F9C2
:1029E00002E0200000F011F903E02900200000F0CF
:1029F0008BF831BD380700204307002038B50400AC
:102A00000D0000200090E888012804D02900200053
:102A100000F07AF815E0A078022802D0032806D04A
:102A20000BE001226946200000F0A5F809E0012230
:102A30002100200000F09FF803E02900200000F0B2
:102A400063F831BD38B504000D0000200090A07877
:102A5000801E01280ED801200090A068002803D015
:102A6000009802210143009102226946200000F0F3
:102A700082F803E02900200000F046F831BD38B5A7
:102A800005000C00608801280AD10120A8602100FF
:102A90002800B822AA5892689047280000F0B5F89C
:102AA00031BD38B505000C00A878801E01280ED86D
:102AB000608801280AD10020A86021002800B822DF
:102AC000AA5892689047280000F09FF803E0210080
:102AD000280000F019F831BD027C0A70427C4A706F
:102AE000827CC37C1B02D2184A80027D437D1B027C
:102AF000D2188A80827DC37D1B02D218CA80CA8800
:102B0000C26301224270704738B504000D000021F5
:102B10002000FFF788FC31BDF8B504000D00170058
:102B20000026002C1BD0200000F01AF80221484398
:102B3000801C38803888F6B2A855761C0320F6B27F
:102B4000A855761C2078002809D02078F6B2A85520
:102B5000641C761C0020F6B2A855761CF2E7F1BD85
:102B600000B5010000200A78002A02D0401C491C50
:102B7000F9E7C0B200BDF8B505000F00140000264B
:102B8000A4B2AC63A4B26C6302206870A4B2230048
:102B90003A0000212800FFF7EFFB3000C0B2F2BD81
:102BA000F8B507000E0014000025A4B2230032007F
:102BB00000213800FFF7E0FB2800C0B2F2BDF8B5F5
:102BC00005000F0014000026A4B288202C50A4B2E7
:102BD00084202C500320687023009BB23A0000210F
:102BE0002800FFF78FFB3000C0B2F2BDF8B5070038
:102BF0000E001400002523009BB232000021380093
:102C0000FFF780FB2800C0B2F2BD38B505000024F4
:102C1000042068700023002200212800FFF7ACFB8D
:102C20002000C0B232BD38B5050000240520687010
:102C30000023002200212800FFF764FB2000C0B21F
:102C400032BDFEE780B238490860704780B238492B
:102C50000860704733490140374A11607047404966
:102C6000C0B204225043085880B2704710B43C4AA6
:102C7000C0B204234343D2582C4B13400B439BB2A6
:102C8000374AC0B204244443135110BC704710B5F6
:102C9000334BC0B2042444431B59264C1C40220031
:102CA000CB0602D5130010225A408B0602D5130022
:102CB00020225A40214B13439BB2294AC0B204241C
:102CC0004443135110BD10B5254BC0B204244443F6
:102CD0001B59244C1C402200CB0403D51300802236
:102CE00052015A408B0403D51300802292015A40AE
:102CF000124B13439BB21A4AC0B2042444431351EB
:102D000010BD1749C0B20422424389583D4A0A40C7
:102D10003D49114389B2124AC0B204234343D15002
:102D200070470000F8FF0000405C00408F89000001
:102D3000445C0040BF8F0000505C00408080000079
:102D40000749C0B20422424389582E4A0A406C49BE
:102D50001143034AC0B204234343D15070470000DB
:102D6000005C00408FBF00006749C0B204224243AC
:102D70008958244A0A4063491143634AC0B2042374
:102D80004343D1507047000000B55F49C0B20422F0
:102D90004243895849040DD55B49C0B204224243DD
:102DA0008958184A0A4056491143574AC0B2042369
:102DB0004343D15000BD00B55349C0B20422424341
:102DC000895849060DD55049C0B20422424389585A
:102DD0000C4A0A404B4911434B4AC0B204234343B7
:102DE000D15000BD494A126892B2C0B20823434391
:102DF000D2187C4BD2180B009BB25B085B0013808F
:102E0000704700008F8F0000808100003F4A1268E9
:102E100092B2C0B208234343D218734BD2180B00AE
:102E20009BB25B085B0013807047384A126892B20D
:102E3000C0B208234343D2186C4BD218118070479C
:102E400010B5324B1B689BB2C0B2082444431B1917
:102E50006E4C1B191A0089B23F290CDB0C00A4B27E
:102E600064092300CC0600D15B1E9B02802424024F
:102E70001C43148008E00C00A4B264082300CC07B3
:102E800000D55B1C9B02138010BD2049096889B2E4
:102E9000C0B20822504308185449401800888005E1
:102EA000800D70471949096889B2C0B208225043A1
:102EB00008185649401800888005800D70470000AA
:102EC00010B4124B1B689BB2C0B2082444431B19B8
:102ED000444C1B190C00A4B2640864001C800B4B0A
:102EE0001B689BB2C0B2082444431B193E4C1B19FB
:102EF0001400A4B2640864001C8010BC7047000079
:102F000080C00000C0800000005C0040505C0040B9
:102F100030B5C9B2002923D1654C2468A4B2C0B22F
:102F2000082545436419314D6419230092B23F2AA4
:102F30000CDB1500ADB26D092C00D50600D1641E66
:102F4000A40280252D0225431D8016E01500ADB298
:102F50006D082C00D50700D5641CA4021C800CE071
:102F6000C9B2012909D1524B1B689BB2C0B20824D7
:102F700044431B191D4C1B191A80C9B2002923D1C7
:102F80004B4C2468A4B2C0B2082545436419544D83
:102F90006419230092B23F2A0CDB1500ADB26D0913
:102FA0002C00D50600D1641EA40280252D022543E5
:102FB0001D8016E01500ADB26D082C00D50700D5B8
:102FC000641CA4021C800CE0C9B2012909D1384B51
:102FD0001B689BB2C0B2082444431B19404C1B1908
:102FE0001A8030BD00600040046000400260004074
:102FF0002F49096889B2C0B20822504308182D49E8
:10300000401800888005800D704700000660004071
:103010002749096889B2C0B20822504308183049CC
:10302000401800888005800D7047000010B5C9B2B7
:1030300000290ED12B4AC0B204234343D2582A4B55
:1030400013402A4A1A43274BC0B2042444431A515E
:1030500010E0C9B201290DD1224AC0B20423434372
:10306000D258214B1340224A1A431E4BC0B20424AB
:1030700044431A5110BDF3B592B21100491C4910D6
:1030800000916E46B6881B4FF6193500009E310040
:1030900000290BD006783300401C067836021E4308
:1030A00034002C80AD1C401C491EF1E7F3BD00002C
:1030B000505C00400260004070B592B213005B1C8F
:1030C0005B1089B20B4E8E1935001C00002C06D007
:1030D0002E880680AD1C401C401C641EF6E770BDA7
:1030E00006600040005C00408F8F0000C080000040
:1030F00080C000000060004070B582B00025002054
:1031000069460880BC48006869464880000400D4CD
:1031100070E1684640880007000F0600F6B2002EF6
:1031200000D090E068464088C00617D4B3480068D5
:1031300080B2B3490140B1480160B2480400207830
:10314000FFF7A3FEA0612069A1694018206100215A
:10315000AD48AE4A126852689047D3E7AC480400C5
:10316000A64800686946088068460088000515D5AD
:103170002078FFF797FEA061A26992B2A188A548C6
:10318000FFF79AFF9D480068A34901409B480160F2
:103190009D489E49096889688847B3E76846008862
:1031A0000004AFD5954800689B49014093480160F1
:1031B0002078FFF777FEA061A069002809D0A269F6
:1031C00092B2A1882069FFF777FF2069A1694018B2
:1031D000206100218C488D4A1268126890478F49FF
:1031E000096889B28E4A89180800E2683F2A0ED31E
:1031F000E26852091100227BD206D20E002A00D1C9
:10320000491E8902802212020A43028008E0E26815
:1032100052081100227BD20700D5491C8902018087
:10322000764909687F4A0A40100001008020400169
:10323000484001008020800148407B49014389B219
:103240006E4801605EE76D48F6B204217143405854
:103250006946088068460088000464D56748F6B26D
:103260000421714340586C4901406448F6B204227D
:10327000724381506448F6B2282171434018683087
:103280000400A07A00280DD12078FFF70BFE05007E
:10329000ADB2002D2AD02A0092B2A1882069FFF792
:1032A0000BFF23E02078FFF7DAFC40040DD52078EF
:1032B000FFF79EFE0500ADB2002D13D02A0092B29A
:1032C000E1882069FFF7F8FE0CE02078FFF7A0FE08
:1032D0000500ADB2002D05D02A0092B221892069E7
:1032E000FFF7EAFE00212078FFF7A0FEA069ADB24B
:1032F0004019A0612069ADB24019206160690028C1
:1033000003D0ADB2E068854206D221783E483F4AFC
:1033100012681268904706E063699BB222692178BF
:103320003948FEF7EFFF68460088000600D4E9E65A
:103330003548F6B2282171434018183004002F4850
:10334000F6B204217143405880B22D4901402B4808
:10335000F6B2042272438150A07A00280DD1207861
:10336000FFF793FDA061A06900282AD0A26992B25C
:10337000A1882069FFF77FFE23E02078FFF76FFC2C
:1033800040060DD52078FFF733FEA061A069002824
:1033900013D0A26992B2E1882069FFF76CFE0CE0BD
:1033A0002078FFF735FEA061A069002805D0A2694A
:1033B00092B221892069FFF75EFE01212078FFF794
:1033C00035FE2078FFF761FDA0612069A1694018F2
:1033D00020616069002806D121780B480B4A1268E9
:1033E000526890478EE66369226921780648FEF7A5
:1033F000C3FF87E673BD0000445C0040005C0040F2
:103400000F8F0000B8040020A00400202800002036
:1034100008050020B00400208F0F0000505C004021
:10342000066000408FBF00008080000080B5002053
:10343000694608803F4800686946088068460088F9
:103440008021090201403C48006889B2014201D054
:10345000FFF752FE684600888021C90001403648C7
:10346000006889B201420BD03448324908603448C0
:10347000344909680969884700213148FFF748F84D
:10348000684600888021890101402B48006889B284
:10349000014202D02C4827490860684600888021F4
:1034A000490101402448006889B201420AD02748F6
:1034B0002049086022482349096889698847002013
:1034C00000F06DF8684600888021090101401A4823
:1034D000006889B2014209D01D48164908601848A1
:1034E000184909684969884700F038F86846008833
:1034F0008021890001401048006889B2014207D04C
:1035000014480C4908600E480E490968C968884784
:10351000684600888021490001400748006889B258
:10352000014205D00C4803490860072000F037F835
:1035300001BD0000445C004020070020FFFB0000AC
:10354000A004002028000020FFDF0000FFEF0000A3
:10355000FFF70000FFFD0000FFFE0000464909687C
:10356000080001000820084380B24349086042492E
:103570000968080001000420084380B23E49086041
:1035800070473D490968080001003C48084080B286
:1035900039490860BF210902374A1160704738B5C0
:1035A0000400E4B2072C01D0354804703448007898
:1035B000002808D002281DD013D304282ED020D3F1
:1035C00005283BD053E02F480068002805D1FFF7BD
:1035D000D8FF06202A49087002E005202849087013
:1035E00048E0FFF7CEFF0420254908700120254957
:1035F00008603FE0022022494870032020490870FB
:1036000038E01F484078401E1D4948701C484078EB
:10361000002802D104201A4908702BE016480068DF
:103620000500280010250543ADB2134805600520AC
:10363000134908700A20124948701BE0104840786E
:10364000401E0F4948700E48407800280ED10A48A5
:103650000068050028000C4D0540ADB20648056025
:1036600006200749087000200649086002E006208D
:103670000349087031BD0000405C0040FBFF0000C2
:103680003007002034070020EFFF000019480068D1
:10369000012101431748016017480068174901409C
:1036A0001548016013480068154901401148016040
:1036B00010480068134901400E4801600E48006838
:1036C000114901400C480160104800680F218843EF
:1036D0000E4908600E4800680E4901400C48016020
:1036E0000D480068012188430B49086000200B4900
:1036F0000860704700100240041002400CB8FF0838
:10370000FFFFF6FEFFFFFBFFFFFFC0FF2C10024094
:10371000301002402CFEFFFF34100240081002401F
:1037200070B40121002213E00468001D0C4202D095
:103730004D466D1E64192260241D1B1F042BFAD2F6
:1037400025009E0701D52280AD1C0B4000D02A70B9
:103750000368001D002BE7D170BC704730B50168CD
:103760004118446862088A188368E40701D54C460A
:103770001B19914201D10C3030BD0C7864B2491C48
:103780000D78491C1D705B1C002C02D5641CF9D1FE
:10379000EFE7641EF4D5ECE7704700B5FEE770472D
:1037A0007047704780B5FFF741FE01BD80B5FDF75A
:1037B000EAFA01BD80B5FDF72BFF01BD80B5FDF72D
:1037C00002FF01BD80B5FDF7CBF901BD06FF000981
:1037D00001A10185010901150025017508953FB179
:1037E0008285010901918285020901150025017573
:1037F00008953FB182850209019182C00902290022
:10380000010100C032090400000203000000092188
:103810001101000122300007058103400020070547
:10382000010340002000000010B507497944183119
:10383000064C7C44163404E0081D0A688918884741
:103840000100A142F8D110BD0800000024000000D2
:10385000D1FEFFFFA4020000A00400200000000031
:10386000FDFEFFFFFC0000000A0100000000002038
:1038700000F00BF8002801D0FFF7D6FF0020C0466B
:10388000C046FCF71DFC00F002F80120704780B52F
:1038900000F002F801BDFEE70746384600F002F8E6
:1038A000FBE7FEE780B5C046C046024A110018207B
:1038B000ABBEFBE726000200EA014800E202CA02B2
:1038C00048038A03AA03C800EA03CA0328030002C4
:1038D0001201000200000040830410A20002010255
:1038E0000301000048494420496E746572666163B3
:1038F0006500000001488047014800478D360008F8
:103900001D39000843686970264469700000000092
:1039100048494420436F6E6669670000C046C04650
:10392000C046C046FFF7A4FF436172644C61620069
:10393000804002018080800004030904FEE7FEE766
:10394000FEE7FEE7FEE7FEE7FEE7FEE7FEE7FEE74F
:10395000FEE7FEE7FEE7FEE7FEE7FEE7FEE7FEE73F
:10396000370C070020100700201C070020771800E4
:1039700008FD180008251800083D1A0008C919009C
:1039800008251A0008111A00080C000020911A00DE
:1039900008DB1A0008F51A0008FC000B7D1C000863
:1039A000251C0008391C0008FC00211B1C000859BC
:1039B0001F0008631F0008811F00086D1F00089585
:1039C0001F00089F1F0008B31F00081A03E6001419
:1039D000EB0C0008ED0C0008EF0C0008F10C0008DF
:0539E000F30C000801DA
:040000050800391D99
:00000001FF
